:020000040800F2
:1000000000060020E1010008E3010008E301000808
:10001000E3010008E3010008E3010008E301000830
:10002000E3010008E3010008E3010008A936000825
:10003000E3010008E3010008E3010008E301000810
:10004000E3010008E3010008E3010008E301000800
:10005000E3010008E3010008E3010008E3010008F0
:10006000E3010008E3010008E3010008E3010008E0
:10007000E3010008E3010008E3010008E3010008D0
:10008000E3010008E3010008E3010008E3010008C0
:10009000E3010008E3010008E3010008E3010008B0
:1000A000E3010008E3010008E3010008E3010008A0
:1000B00065390008E3010008E3010008E3010008D6
:1000C000E3010008E3010008E3010008E301000880
:1000D000E301000851390008E3010008E3010008CA
:1000E000E3010008E3010008E3010008E301000860
:1000F000E3010008E3010008E3010008E301000850
:10010000E3010008E3010008E3010008E30100083F
:10011000E3010008E3010008E3010008E30100082F
:10012000E3010008E3010008E3010008E30100081F
:10013000E3010008E3010008E3010008E30100080F
:10014000E3010008E3010008E30100082D2E000888
:10015000E3010008E3010008E3010008E3010008EF
:10016000E3010008E3010008E3010008E3010008DF
:10017000E3010008E3010008E3010008E3010008CF
:10018000E3010008E3010008E3010008E3010008BF
:10019000E3010008E3010008E3010008E3010008AF
:1001A000E3010008E3010008E3010008E30100089F
:1001B000E3010008E3010008E3010008E30100088F
:1001C000E3010008E3010008E3010008E30100087F
:1001D000E3010008E3010008E3010008E30100086F
:1001E00002E000F000F8FEE772B6374880F30888B6
:1001F000364880F3098836483649086040F20000E6
:10020000CCF200004EF63471CEF200010860BFF36C
:100210004F8FBFF36F8F40F20000C0F2F0004EF638
:100220008851CEF200010860BFF34F8FBFF36F8F8C
:100230004FF00000E1EE100A4EF63C71CEF20001E4
:100240000860022080F31488BFF36F8F02F074FA05
:1002500003F0C8F94FF055301F491B4A91423CBF8B
:1002600041F8040BFAE71D49184A91423CBF41F896
:10027000040BFAE71A491B4A1B4B9A423EBF51F83E
:10028000040B42F8040BF8E700201849184A914281
:100290003CBF41F8040BFAE702F052FA03F0F6F91A
:1002A000144C154DAC4203DA54F8041B8847F9E7A7
:1002B00000F042F8114C124DAC4203DA54F8041B22
:1002C0008847F9E702F03ABA000600200022002031
:1002D0000000000808ED00E00000002000060020FB
:1002E000303D0008002200204C2200205022002037
:1002F00070300020E0010008E0010008E001000883
:10030000E00100082DE9F04F2DED108AC1F80CD066
:10031000C3689D46BDEC108ABDE8F08F002383F3CF
:1003200011882846A047002001F0B2FDFEE701F049
:100330003BFD00DFFEE7000038B500F0BFFB02F038
:10034000C7F9054602F0EAF90446C8B90E4B9D42CA
:1003500018D001339D4218BF044641F2883504BFCE
:1003600001240025002002F0BDF90CB100F072F864
:1003700000F018FD284600F0C1F800F06BF8F9E72E
:100380000025EFE70546EDE7010007B008B500F0EE
:1003900061FBA0F120035842584108BD07B5042174
:1003A00001900DEB010000F073FB03B05DF804FB5E
:1003B00038B5302383F31188174803680BB101F077
:1003C00033FE164A144800234FF47A7101F022FEDE
:1003D000002383F31188124C236813B12368013B77
:1003E0002360636813B16368013B63600D4D2B7834
:1003F00033B963687BB9022000F036FC32236360B6
:100400002B78032B07D163682BB9022000F02CFC5A
:100410004FF47A73636038BD50220020B1030008A6
:100420007023002068220020084B187003280CD885
:10043000DFE800F008050208022000F005BC0220F9
:1004400000F0F2BB024B00225A6070476822002085
:1004500070230020244B254A10B51C461968013131
:1004600040D004339342F9D16268214B9A4239D982
:10047000204B9B6803F1006303F580339A4231D22D
:10048000002000F035FB0220FFF7CEFF1A4B1A6C5C
:1004900000221A64196E1A66196E596C5A64596EE4
:1004A0005A665A6E5A6942F080025A615A6922F0BD
:1004B00080025A615A691A6942F000521A611A6937
:1004C00022F000521A611B6972B64FF0E02330210E
:1004D000C3F8084DD4E9003281F311889D4683F3B7
:1004E0000888104710BD00BF000001082000010867
:1004F000FFFF000800220020003802402DE9F04FE5
:1005000093B0DFF8049302902022FF210AA8D9F8C3
:10051000085000F0F1FBB34A1378A3B9B2480121A7
:1005200003601170302383F3118803680BB101F06D
:100530007BFDAE4AAC4800234FF47A7101F06AFDAE
:10054000002383F31188029B13B1A94B029A1A600E
:10055000A84A029C1378032B1EBF00231370A44AE1
:100560004FF0000B18BF5360CDF804B05E46DA467A
:10057000012000F069FB24B19D4B1B68002B00F0AB
:10058000F981002000F066FA071EF4DB012000F07C
:100590004BFBA7F121001628EAD801A353F820F05D
:1005A000FD05000819060008A706000871050008E7
:1005B00071050008710500082B070008EB0800080A
:1005C0000D080008690800088F080008B508000831
:1005D00071050008C7080008710500083309000804
:1005E00085060008710500087B0900080906000857
:1005F0008506000871050008690800080220FFF759
:10060000C5FE002840F0E381029B7B48BBF1000F50
:1006100008BF1C46022140E04FF47A7000F01AFA3D
:10062000071EF1DB0220FFF7B1FE0028ECD0013FEE
:10063000052F00F2CE81DFE807F003070A0D103323
:100640000520FFF7ABFE14E0D9F80000F9E7D9F870
:100650000400F6E7D9F80800F3E74FF01C0840461D
:1006600000F048FA08F10408FFF798FEB8F12C0FE3
:10067000F5D1019B012000FA07F71F43FBB201935C
:100680004FF0000A00F084FB2EB1019B03F00B0336
:100690000B2B08BF00245948022100F0F9F967E745
:1006A000D9F80C00CDE7002EAED0019B03F00B0370
:1006B0000B2BA9D10220FFF769FE07460028A3D023
:1006C000012000F015FA0220FFF7AEFE00261FFA07
:1006D00086F8404600F01CFA044670B100214046FE
:1006E00000F026FA01360028F1D1BB460446444802
:1006F000022100F0CDF93E463AE70120FFF794FED3
:100700002546D9F80830AB4207D9284600F0F2F95F
:10071000013040F061810435F3E7364B00251D7050
:10072000334BBB465D603E46ACE7002E3FF46CAFFA
:10073000019B03F00B030B2B7FF466AF0220FFF746
:1007400073FE322000F086F9B0F10008FFF65CAFCE
:1007500018F003077FF458AFD9F8082008EB050319
:1007600093423FF651AFB8F5807F3FF74DAF254B31
:100770000393B8450BDD4FF47A7000F06BF9002855
:10078000FFF642AF039B013703F8010BF0E7C820E7
:10079000FFF7FCFD074600283FF436AF1F2D11D8A8
:1007A000C5F1200242450AAB25F0030028BF4246AE
:1007B00014490392184400F079FA039A1148FF2172
:1007C00000F09AFA4FEAA8030E490393C8F3870290
:1007D000284600F099FA0646002888D0039B05EBCE
:1007E00083054FE76C23002050220020B10300084E
:1007F0007023002068220020CC390008C43900088A
:10080000C83900086C220020002200200220FFF7D7
:10081000BDFD00283FF4F8AE00F0B6F900283FF423
:10082000F3AE0027B846D9F80830BB4218D91F2FBD
:1008300011D80A9B01330ED027F0030312AA1344E8
:1008400053F8203C05934046042205A900F00AFB1A
:1008500004378046E7E7384600F04CF90590F2E7A8
:100860004046FFF79BFD0DE70023642105A8059393
:1008700000F004F900287FF4C7AE0220FFF786FDE0
:1008800000283FF4C1AE059800F066F9E9E70023BF
:10089000642105A8059300F0F1F800287FF4B4AEB8
:1008A0000220FFF773FD00283FF4AEAE059800F07C
:1008B00063F9D6E70220FFF769FD00283FF4A4AEF4
:1008C00000F072F9CDE70220FFF760FD00283FF449
:1008D0009BAE05A9142000F06DF90390FFF75EFDB3
:1008E000039905A800F0D4F8CCE6322000F0B2F865
:1008F000071EFFF689AEBB077FF486AED9F8082045
:1009000007EB0A0393423FF67FAE0220FFF73EFD5E
:1009100000283FF479AE27F003075744BA453FF467
:10092000B1AE504600F0E6F8FFF738FD0AF1040AD0
:10093000F4E74FF47A70FFF729FD00283FF464AE26
:1009400000F022F9002849D00A9B01330BD008227D
:100950000AA9002000F0D8F900283FD02022FF216A
:100960000AA800F0C9F91E48022100F091F81D48BC
:1009700001F094FA13B0BDE8F08F002E3FF444AEBE
:10098000019B03F00B030B2B7FF43EAE002364218D
:1009900005A8059300F072F8074600287FF434AEEE
:1009A0000220FFF7F3FC804600283FF42DAE022121
:1009B0000B4800F06DF841F2883001F06FFA0598AD
:1009C00000F02EFA464600F0E3F93C46D0E5064634
:1009D00058E64FF0000A17E6BB4688E6374686E63B
:1009E000C4390008A08601002DE9F84F4FF47A734E
:1009F000DFF85880DFF8589006460D4602FB03F7F3
:100A0000002498F900305A1C5FFA84FA01D0A342FE
:100A100012D159F8240003682A46D3F820B0314691
:100A20003B46D847854207D1074B012083F800A0F9
:100A3000BDE8F88F0124E4E7002CFBD04FF4FA70F6
:100A400001F02CFA0020F3E7B82300201022002048
:100A50001422002007B50023024601210DF10700F2
:100A60008DF80730FFF7C0FF20B19DF8070003B0F5
:100A70005DF804FB4FF0FF30F9E700000A4608B5C7
:100A80000421FFF7B1FF80F00100C0B2404208BD71
:100A900030B4074B0A461978064B53F821402368B7
:100AA000DD69054B0146AC46204630BC604700BFBF
:100AB000B823002014220020A086010070B501F0A8
:100AC0000DFD094E094D308000242868338883428B
:100AD00008D901F0FDFC2B6804440133B4F5803FD4
:100AE0002B60F2D370BD00BFBA2300207823002012
:100AF00001F0A2BD00F1006000F580300068704791
:100B000000F10060920000F5803001F02DBD000082
:100B1000054B1A68054B1B889B1A834202D9104467
:100B200001F0D6BC0020704778230020BA230020B3
:100B300038B5084D044629B128682044BDE838403E
:100B400001F0E6BC2868204401F0CAFC0028F3D07C
:100B500038BD00BF7823002010F003030AD1B0F5A0
:100B6000047F05D200F10050A0F51040D0F8003805
:100B7000184670470023FBE700F10050A0F5104035
:100B8000D0F8100A70470000064991F8243033B1BC
:100B90000023086A81F824300822FFF7B1BF012042
:100BA000704700BF7C230020014B1868704700BFCE
:100BB000002004E070B5194B1D68194B0138C5F3CE
:100BC0000B0408442D0C04221E88A6420BD15C683D
:100BD0000A46013C824213460FD214F9016F4EB10E
:100BE00002F8016BF6E7013A03F10803ECD1814208
:100BF0000B4602D22C2203F8012B0A4A0524168840
:100C0000AE4204D1984284BF967803F8016B013C50
:100C100002F10402F3D1581A70BD00BF002004E0B5
:100C2000103A0008FC390008022804D1054B4FF0A7
:100C300080429A6170470128FCD1024B4FF000526C
:100C4000F7E700BF00000240022804D1054B4FF433
:100C500080429A6170470128FCD1024B4FF4005248
:100C6000F7E700BF00000240022805D1064A536999
:100C700083F48043536170470128FCD1024A5369D1
:100C800083F40053F6E700BF0000024070B504464D
:100C90004FF47A764CB1412C254628BF412506FBFE
:100CA00005F001F0FBF8641BF4E770BD10B50023FC
:100CB000934203D0CC5CC4540133F9E710BD00006B
:100CC00010B5013810F9013F3BB191F900409C4249
:100CD00003D11AB10131013AF4E71AB191F90020B8
:100CE000981A10BD1046FCE703460246D01A12F9C6
:100CF000011B0029FAD1704702440346934202D0F7
:100D000003F8011BFAE770472DE9F8431F4D14461D
:100D100095F824200746884652BBDFF870909CB3B4
:100D200095F824302BB92022FF2148462F62FFF787
:100D3000E3FF95F82400C0F10802A24228BF224632
:100D4000D6B24146920005EB8000FFF7AFFF95F861
:100D50002430A41B1E44F6B2082E17449044E4B27B
:100D600085F82460DBD1FFF70FFF0028D7D108E01A
:100D70002B6A03EB82038342CFD0FFF705FF0028E5
:100D8000CBD10020BDE8F8830120FBE77C230020C5
:100D9000024B1A78024B1A70704700BFB82300202C
:100DA0001022002038B5194C194D204600F0C0FB28
:100DB0002946204600F0E8FB2D686A6DD2F8043819
:100DC00043F00203C2F804384FF47A70FFF75EFF75
:100DD0001049284600F000FD6A6D0F4DD2F8043826
:100DE00028680E4923F00203C2F80438A0424FF4E9
:100DF000E1330B6001D000F0F7FA6868A04204D03C
:100E0000BDE83840054900F0EFBA38BD9828002009
:100E1000183B0008203B000814220020A4230020D7
:100E200070B50C4B0C4D1E780C4B55F826209A4291
:100E300004460DD00A4B002114221846FFF75CFF30
:100E40000460014655F82600BDE8704000F0CCBAB9
:100E500070BD00BFB8230020142200209828002075
:100E6000A423002030B5094D0A4491420DD011F859
:100E7000013B5840082340F30004013B2C4013F091
:100E8000FF0384EA5000F6D1EFE730BD2083B8EDD0
:100E9000026843681143016003B1184770470000BE
:100EA000024AD36843F0C003D3607047001001408A
:100EB00010B5084C084A0021204600F073FA074B91
:100EC000C4F85C3203F1454303F52D43C4F86032A6
:100ED00010BD00BFBC230020A10E0008001001407F
:100EE000234A037C002918BF0A46012B30B5C0F8FD
:100EF00068220CD11F4B984209D11F4B596C41F00D
:100F000010015964596E41F0100159665B6EB2F9D7
:100F100004501468D0F86032D0F85C12002D03EB56
:100F20005403B3FBF4F3BEBF23F0070503F007033C
:100F300043EA450394888B60D38843F040030B61F8
:100F4000138943F001034B6144F4045343F02C0331
:100F5000CB6004F4A05400230B60B4F5806F0B68E1
:100F60004B680CBF7F23FF2380F8643230BD00BF85
:100F7000303A0008BC230020003802402DE9F0413F
:100F8000D0F85C723B68DA0504469DB20DD530237B
:100F900083F311884FF480610430FFF779FF6FF419
:100FA00080733B60002383F31188302383F311881F
:100FB000261D15F02F033AD183F31188FB6818061C
:100FC0009EB214D5290612D5302383F3118804F17B
:100FD000380000F063F900284CDA0821201DFFF7E3
:100FE00057FF26F08006B6B2002383F311887206FD
:100FF00014D56B0612D5302383F31188D4E913235B
:101000009A4208D1236C33B11021201DFFF740FF15
:1010100026F04006B6B2002383F31188D4F8682284
:10102000FE60D36843B3BDE8F041106918472B0751
:1010300014D015F0080F0CBF00214FF48071E807A1
:1010400048BF41F02001AA0748BF41F040016B07AB
:1010500048BF41F080013046FFF71AFFAD067B68BC
:1010600005D594F864122046194000F0CBF93D688C
:10107000ADB29EE77860B7E7BDE8F081F8B51546F8
:1010800082680669AA420B46816938BF8568761A6C
:10109000B54204460BD218462A46FFF707FEA3695D
:1010A0002B44A361A3685B1BA3602846F8BD0CD941
:1010B00018463246FFF7FAFDAF1BE1683A46304466
:1010C000FFF7F4FDE3683B44EBE718462A46FFF7D9
:1010D000EDFDE368E5E7000083689342F7B5154648
:1010E000044638BF8568D0E90460361AB5420BD291
:1010F0002A46FFF7DBFD63692B446361A36828463A
:101100005B1BA36003B0F0BD0DD932460191FFF720
:10111000CDFD0199E068AF1B3A463144FFF7C6FDAB
:10112000E3683B44E9E72A46FFF7C0FDE368E4E7EC
:1011300010B50A440024C361029B8460C0E900002A
:10114000C0E90511C1600261036210BD08B5D0E9B4
:101150000532934201D1826882B98268013282608D
:101160005A1C42611970D0E904329A4224BFC36804
:101170004361002100F0AEFE002008BD4FF0FF30BB
:10118000FBE7000070B5302304460E4683F3118858
:10119000A568A5B1A368A269013BA360531CA36124
:1011A00015782269934224BFE368A361E3690BB118
:1011B00020469847002383F31188284607E03146EC
:1011C000204600F077FE0028E2DA85F3118870BD32
:1011D0002DE9F74F04460E4617469846D0F81C9066
:1011E0004FF0300A8AF311884FF0000B154665B1B5
:1011F0002A4631462046FFF741FF034660B9414683
:10120000204600F057FE0028F1D0002383F3118818
:10121000781B03B0BDE8F08FB9F1000F03D0019047
:101220002046C847019B8BF31188ED1A1E448AF3B0
:101230001188DCE7C0E90511C160C3611144009B5E
:101240008260C0E90000016103627047F8B504469E
:101250000D461646302383F31188A768A7B1A3680B
:10126000013BA36063695A1C62611D70D4E90432BA
:101270009A4224BFE3686361E3690BB12046984753
:10128000002080F3118807E03146204600F012FE6E
:101290000028E2DA87F31188F8BD0000D0E90523C1
:1012A0009A4210B501D182687AB9826801328260AF
:1012B0005A1C82611C7803699A4224BFC368836107
:1012C000002100F007FE204610BD4FF0FF30FBE785
:1012D0002DE9F74F04460E4617469846D0F81C9065
:1012E0004FF0300A8AF311884FF0000B154665B1B4
:1012F0002A4631462046FFF7EFFE034660B94146D5
:10130000204600F0D7FD0028F1D0002383F3118898
:10131000781B03B0BDE8F08FB9F1000F03D0019046
:101320002046C847019B8BF31188ED1A1E448AF3AF
:101330001188DCE7026843681143016003B1184774
:10134000704700001430FFF743BF00004FF0FF3339
:101350001430FFF73DBF00003830FFF7B9BF000081
:101360004FF0FF333830FFF7B3BF00001430FFF702
:1013700009BF00004FF0FF311430FFF703BF00003A
:101380003830FFF763BF00004FF0FF323830FFF70F
:101390005DBF0000012914BF6FF0130000207047EB
:1013A000FFF786BD37B515460E4A0260002242603F
:1013B000C0E902220122044602740B46009000F1AB
:1013C0005C014FF480721430FFF7B2FE00942B469C
:1013D0004FF4807204F5AE7104F13800FFF72AFF74
:1013E00003B030BD443A000810B53023044683F3FF
:1013F0001188FFF775FD02232374002080F3118804
:1014000010BD000038B5C36904460D461BB9042160
:101410000844FFF78FFF294604F11400FFF796FEFA
:10142000002806DA201D4FF40061BDE83840FFF7C0
:1014300081BF38BD026843681143016003B118479A
:101440007047000013B5446BD4F894341A681178CF
:10145000042915D1217C022912D11979128901237D
:101460008B4013420CD101A904F14C0001F076FF2E
:10147000D4F89444019B21790246206800F0F6F9E3
:1014800002B010BD143001F0F9BE00004FF0FF3380
:10149000143001F0F3BE00004C3001F0CBBF00006F
:1014A0004FF0FF334C3001F0C5BF0000143001F0A5
:1014B000C7BE00004FF0FF31143001F0C1BE000084
:1014C0004C3001F097BF00004FF0FF324C3001F07C
:1014D00091BF000010B5D0F894341A68117804292F
:1014E000044617D1017C022914D15979528901236C
:1014F0008B4013420ED1143001F05CFE024648B11D
:10150000D4F894444FF4807361792068BDE81040AA
:1015100000F09AB910BD0000406BFFF7DBBF000080
:1015200000290CBF6FF013000020704770470000C7
:101530007FB5124B036000234360C0E902330125ED
:1015400002260F4B057404460290019300F18402B9
:10155000294600964FF48073143001F007FE094BC2
:101560000294CDE9006304F523724FF48073294699
:1015700004F14C0001F0CEFE04B070BD6C3A0008DE
:101580001915000845140008302383F311880B68EF
:101590000A7903EB820290614A79093243F822000A
:1015A0008A7912B103EB820398610223C0F8941484
:1015B0000374002080F311887047000038B5037F62
:1015C000044613B190F85430ABB9201D0125022117
:1015D000FFF730FF04F1140025776FF0010100F0F0
:1015E00085FC84F8545004F14C006FF00101BDE813
:1015F000384000F07BBC38BD10B5012104460430F2
:10160000FFF718FF0023237784F8543010BD000043
:1016100038B504460025143001F0C0FD04F14C003B
:10162000257701F08FFE201D84F854500121FFF72B
:1016300001FF2046BDE83840FFF74CBF90F844302A
:1016400003F06003202B07D190F84520212A4FF0AA
:10165000000303D81F2A06D800207047222AFBD196
:10166000C0E90E3303E0034A82630722C2630364C6
:10167000012070471C22002037B5D0F894341A6836
:101680001178042904461AD1017C022917D119794D
:10169000128901238B40134211D100F14C052846D9
:1016A00001F010FF58B101A9284601F057FED4F807
:1016B0009444019B21790246206800F0D7F803B0DA
:1016C00030BD00002DE9F34104460D4619B300EB8F
:1016D00081039E69FEB1302383F3118800EB8107FB
:1016E00006F14C08FB685B691B6833B1404601F0AA
:1016F00043FE0821301DFFF79DFE01A9404601F081
:101700002DFE024650B1019B2946204600F0AEF85E
:10171000002383F3118802B0BDE8F081FB685A69A9
:10172000126832B11B8A013B134002D104F144021A
:10173000EAE71021301DFFF77DFEE9E738B5F9B182
:10174000093150F82140DCB1302383F31188D4F8FB
:1017500094241368527903EB8203DB689B695D680C
:1017600045B104216018FFF765FE294604F1140015
:1017700001F02AFD2046FFF7ADFE002383F3118818
:1017800038BD00007047000010B50021044601F08C
:10179000B9FC0021204601F0ABFC63681B6813B163
:1017A000062120469847A36823F00113A360002375
:1017B000E363062384F8343010BD000001F034B830
:1017C000012303700023C0E90133C3618362036214
:1017D000C36243620363704738B50446302383F322
:1017E00011880025C0E90355C0E90555416001F0A5
:1017F0002BF80223237085F31188284638BD00009A
:1018000070B500EB810305465069DA600E46144658
:1018100018B110220021FFF76FFAA06918B1102249
:101820000021FFF769FA31462846BDE8704001F013
:10183000D7B80000826802F0011282600022C0E97D
:101840000422826101F058B9F0B400EB81044789A9
:10185000E4680125A4698D403D4345812360002350
:10186000A2606360F0BC01F073B90000F0B400EB5B
:1018700081040789E468012564698D403D43058141
:1018800023600023A2606360F0BC01F0EDB90000AA
:1018900070B50223002504460370C0E90255C0E973
:1018A0000455C564C563856180F8345001F032F891
:1018B00063681B6823B129462046BDE8704018477D
:1018C00070BD00000378052B10B504460AD080F8DF
:1018D00050300523037043681B680BB104219847FF
:1018E0000023A36010BD00000178052906D190F8FF
:1018F0005020436802701B6803B11847704700000E
:1019000070B590F8343004463BB1836823F001137E
:1019100083600023C36380F8343004F14402002163
:10192000204601F00BF963689B684BB994F844308A
:1019300013F0600528D02046BDE87040FFF724BFB3
:10194000204698470028F1D0B4F84A30E26B9A421A
:1019500088BFE36394F94430E56B002B4FF030030C
:1019600080F20281002D00F0F180092284F83420F9
:1019700083F311880021D4E90E232046FFF776FF78
:10198000002383F3118870BD94F8452003F07F0392
:1019900043EA022340F20232934200F0C48021D88D
:1019A000B3F5807F47D00DD8012B3ED0022B00F03D
:1019B0009280002BBFD104F14C02A2630222E263A9
:1019C0002364C1E7B3F5817F00F09A80B3F5407FCF
:1019D000B1D194F84630012BADD1B4F84C3043F07E
:1019E000020331E0B3F5006F4CD017D8B3F5A06F08
:1019F00030D0A3F5C063012B9DD8636894F84620CE
:101A00005E6894F84710B4F848302046B047002884
:101A100091D04368A3630368E36319E0B3F5106FE3
:101A200035D040F60242934285D15C4BA36302233A
:101A3000E3630023C4E794F84630012B7FF47BAFC7
:101A4000B4F84C3023F00203C4E90E55A4F84C302E
:101A5000256479E7B4F84430B3F5A06F0ED194F85B
:101A6000463084F84E30204600F0AEFF63681B68B5
:101A700013B1012120469847032323700023C4E9B2
:101A80000E339DE704F14F03A3630123C4E72378DA
:101A9000042B10D1302383F311882046FFF7CAFEB0
:101AA00085F311880321636884F84F5021701B6807
:101AB0000BB12046984794F84630002BDED084F8CE
:101AC0004F300423237063681B68002BD6D002219B
:101AD00020469847D2E794F848301D0603F00F01DE
:101AE00020460AD501F01CF8012804D002287FF412
:101AF00022AF2B4B9AE72B4B98E701F003F8F3E763
:101B000094F84630002B7FF416AF94F8483013F069
:101B10000F01B3D01A06204602D501F007FBADE74E
:101B200001F0FAFAAAE794F84630002B7FF403AFED
:101B300094F8483013F00F01A0D01B06204602D5C0
:101B400001F0E0FA9AE701F0D3FA97E7142284F85B
:101B5000342083F311882B462A4629462046FFF776
:101B600073FE85F311880EE75DB1152284F83420E9
:101B700083F311880021D4E90E232046FFF764FE89
:101B8000FEE60B2284F8342083F311882B462A4684
:101B900029462046FFF76AFEE3E700BF9C3A0008AB
:101BA000943A0008983A000838B590F834300B2B76
:101BB000044609D80B2B37D8DFE803F00836363651
:101BC00036360836360D2737152B2DD12046BDE881
:101BD0003840FFF7D9BDC56BB0F84A309D4214D2EA
:101BE000C3681B8AB5FBF3F203FB12556DB93023B2
:101BF00083F311882B462A462946FFF737FE85F3E3
:101C000011880A2384F834300EE0142384F8343029
:101C1000302383F3118800231A4619462046FFF724
:101C200013FE002383F3118838BD036C03B198477A
:101C3000A36823F00113A3600023E363E2E700003D
:101C400010B590F83430142B04461ED00CD8062B57
:101C500005D001D81BB110BD0A3B012BFBD8204693
:101C6000BDE81040FFF790BD152BF4D10B2380F891
:101C70003430302383F3118800231A461946FFF7C6
:101C8000F5FD002383F31188E5E7C3689B695B6872
:101C9000002BE0D1036C03B19847A36823F0011334
:101CA000A3600023E36384F83430D4E70023037592
:101CB000826803691B6899689142FBD25A68036085
:101CC00042601060586070470023037582680369A2
:101CD0001B6899689142FBD85A68036042601060A3
:101CE0005860704708B50846302383F311880B7D90
:101CF000032B05D0042B0DD02BB983F3118808BD1D
:101D00008B6900221A604FF0FF338361FFF7CEFF2B
:101D10000023F2E7D1E9003213605A60F3E70000D4
:101D2000FFF7C4BF38B50A4BDD681C682875226808
:101D30001A605360DC60A36801229342227501D1CE
:101D400000F0F6FC29462046BDE83840FEF7DABA36
:101D50002826002030B50C4BDD684B1C87B00446AC
:101D60000FD02B46094A684600F054F92046FFF789
:101D7000D9FF009B13B1684600F056F9A86907B077
:101D800030BDFFF7CFFFF9E728260020E51C00084B
:101D9000044B1A68DB6890689B68984294BF0020E7
:101DA000012070472826002038B50B4B1C68DD68E1
:101DB00022681A60536001222275DC60AB6893428E
:101DC00001D100F0B7FC2846FFF77EFF0146204610
:101DD000BDE83840FEF796BA2826002038B5074CF3
:101DE00007490848012300252370656001F0A2FB24
:101DF0000223237085F3118838BD00BF902800208E
:101E0000A43A00082826002000F044B9034A51688B
:101E100053685B1A9842FBD8704700BF001000E07F
:101E20008B60022308618B82084670478368A3F1A8
:101E3000840243F8142C026943F8442C426943F8A5
:101E4000402C094A43F8242CC26843F8182C02227B
:101E500003F80C2C002203F80B2C044A43F8102C36
:101E6000A3F12000704700BF1D03000828260020B2
:101E700008B5FFF7DBFFBDE80840FFF751BF0000E2
:101E8000024BDB6898610F20FFF74CBF282600202B
:101E9000302383F31188FFF7F3BF000008B5014634
:101EA000302383F311880820FFF754FF002383F3C6
:101EB000118808BD064BDB6839B1426818605A606A
:101EC000136043600420FFF745BF4FF0FF307047B9
:101ED000282600200368984206D01A6802605060E5
:101EE00099611846FFF71CBF7047000038B50446DB
:101EF0000D462068844200D138BD036823605C60D1
:101F00008561FFF70DFFF4E710B503689C68A242F6
:101F10000CD85C688A600B604C60216059609968DD
:101F20008A1A9A604FF0FF33836010BD1B68121B42
:101F3000ECE700000A2938BF0A2170B504460D46B7
:101F40000A26601901F0F0FA01F0DCFA041BA54240
:101F500003D8751C2E460446F3E70A2E04D9BDE8C3
:101F60007040012001F026BB70BD0000F8B5144B95
:101F70000D46D96103F1100141600A2A1969826096
:101F800038BF0A22016048601861A818144601F0A1
:101F9000BDFA0A2701F0B6FA431BA342064606D350
:101FA0007C1C281901F0C0FA27463546F2E70A2FB3
:101FB00004D9BDE8F840012001F0FCBAF8BD00BF2B
:101FC00028260020F8B506460D4601F09BFA0F4A78
:101FD000134653F8107F9F4206D12A4601463046E9
:101FE000BDE8F840FFF7C2BFD169BB68441A2C199D
:101FF00028BF2C46A34202D92946FFF79BFF224661
:1020000031460348BDE8F840FFF77EBF2826002090
:102010003826002010B4C0E9032300235DF8044BE8
:102020004361FFF7CFBF000010B5194C23699842F8
:102030000DD0D0E90032816813605A609A680A4472
:102040009A60002303604FF0FF33A36110BD234665
:10205000026843F8102F53600022026022699A42FE
:1020600003D1BDE8104001F059BA936881680B4470
:10207000936001F047FA2269E1699268441AA2422A
:10208000E4D91144BDE81040091AFFF753BF00BF5F
:10209000282600202DE9F047DFF8BC8008F1100762
:1020A0002C4ED8F8105001F02DFAD8F81C40AA6830
:1020B000031B9A423ED81444D5E900324FF0000980
:1020C000C8F81C4013605A60C5F80090D8F810306A
:1020D000B34201D101F022FA89F31188D5E9033125
:1020E00028469847302383F311886B69002BD8D09A
:1020F00001F008FA6A69A0EB04094A4582460DD24C
:10210000022001F057FA0022D8F81030B34208D16B
:1021100051462846BDE8F047FFF728BF121A22446F
:10212000F2E712EB090938BF4A4629463846FFF75D
:10213000EBFEB5E7D8F81030B34208D01444211AAA
:10214000C8F81C00A960BDE8F047FFF7F3BEBDE882
:10215000F08700BF38260020282600200020704786
:10216000FEE70000704700004FF0FF3070470000AE
:1021700002290CD0032904D00129074818BF0020E8
:102180007047032A05D8054800EBC2007047044891
:1021900070470020704700BF7C3B00082C220020C5
:1021A000303B000870B59AB00546084601A91446B0
:1021B00000F0C2F801A8FEF797FD431C5B00C5E9DB
:1021C00000340022237003236370C6B201AB0234D3
:1021D0001046D1B28E4204F1020401D81AB070BD8B
:1021E00013F8011B04F8021C04F8010C0132F0E79B
:1021F00008B5302383F311880348FFF73DFA002325
:1022000083F3118808BD00BF9828002090F844305F
:1022100003F01F02012A07D190F845200B2A03D1B1
:102220000023C0E90E3315E003F06003202B08D132
:10223000B0F848302BB990F84520212A03D81F2A3E
:1022400004D8FFF7FBB9222AEBD0FAE7034A8263EE
:102250000722C26303640120704700BF23220020CD
:1022600007B5052917D8DFE801F019160319192059
:10227000302383F31188104A01900121FFF7C0FA3F
:1022800001980E4A0221FFF7BBFA0D48FFF7C0F98B
:10229000002383F3118803B05DF804FB302383F33C
:1022A00011880748FFF78AF9F2E7302383F3118892
:1022B0000348FFF7A1F9EBE7D03A0008F43A000829
:1022C0009828002038B50C4D0C4C0D492A4604F1D5
:1022D0000800FFF767FF05F1CA0204F11000094981
:1022E000FFF760FF05F5CA7204F118000649BDE862
:1022F0003840FFF757BF00BF602D00202C22002080
:10230000B03A0008BA3A0008C53A000870B5044669
:1023100008460D46FEF7E8FCC6B2204601340378B5
:102320000BB9184670BD32462946FEF7C9FC002895
:10233000F3D10120F6E700002DE9F04705460C46F1
:10234000FEF7D2FC2B49C6B22846FFF7DFFF08B1E3
:102350000B36F6B228492846FFF7D8FF08B11036E9
:10236000F6B2632E0BD8DFF88C80DFF88C90234F09
:10237000DFF894A02E7846B92670BDE8F08729468C
:102380002046BDE8F04701F015BB252E2ED10722CF
:1023900041462846FEF794FC70B9194B224603F1DA
:1023A000100153F8040B42F8040B8B42F9D11B883F
:1023B000138007351234DDE7082249462846FEF728
:1023C0007FFC98B90F4BA21C197809090232C95D2C
:1023D00002F8041C13F8011B01F00F015345C95DFD
:1023E00002F8031CF0D118340835C3E704F8016B78
:1023F0000135BFE79C3B0008C53A0008B73B000821
:10240000A43B0008107AFF1F1C7AFF1FBFF34F8FF9
:10241000024AD368DB03FCD4704700BF003C024093
:1024200008B5094B1B7873B9FFF7F0FF074B1A6922
:10243000002ABFBF064A5A6002F188325A601A6801
:1024400022F480621A6008BDBE2F0020003C0240CA
:102450002301674508B50B4B1B7893B9FFF7D6FFEF
:10246000094B1A6942F000421A611A6842F480521C
:102470001A601A6822F480521A601A6842F4806264
:102480001A6008BDBE2F0020003C02400B28F0B5AA
:1024900016D80C4C0C4923787BB90C4D0E460C23F6
:1024A0004FF0006255F8047B46F8042B013B13F013
:1024B000FF033A44F6D10123237051F82000F0BD08
:1024C0000020FCE7F02F0020C02F0020C83B0008B0
:1024D000014B53F820007047C83B00080C207047A0
:1024E0000B2810B5044601D9002010BDFFF7CEFF20
:1024F000064B53F824301844C21A0BB90120F4E7F4
:1025000012680132F0D1043BF6E700BFC83B000877
:102510000B2810B5044621D8FFF778FFFFF780FF9E
:102520000F4AF323D360C300DBB243F4007343F0DC
:1025300002031361136943F480331361FFF766FFED
:10254000FFF7A4FF074B53F8241000F0D9F8FFF76A
:1025500081FF2046BDE81040FFF7C2BF002010BD3C
:10256000003C0240C83B0008F8B512F001031446D5
:1025700042D18218B2F1016F57D82D4B1B6813F06E
:10258000010352D02B4DFFF74BFFF323EB60FFF716
:102590003DFF40F20127032C15D824F001046618F2
:1025A000244C401A40F20117B142236900EB0105A7
:1025B00024D123F001032361FFF74CFF0120F8BD74
:1025C000043C0430E7E78307E7D12B6923F4407329
:1025D0002B612B693B432B6151F8046B0660BFF301
:1025E0004F8FFFF713FF03689E42E9D02B6923F05A
:1025F00001032B61FFF72EFF0020E0E723F4407377
:10260000236123693B4323610B882B80BFF34F8FEA
:10261000FFF7FCFE2D8831F8023BADB2AB42C3D0D0
:10262000236923F001032361E4E71846C7E700BFED
:1026300000380240003C0240084908B50B7828B138
:102640001BB9FFF7EDFE01230B7008BD002BFCD07A
:10265000BDE808400870FFF7FDBE00BFBE2F002098
:1026600010B50244064BD2B2904200D110BD441CBA
:1026700000B253F8200041F8040BE0B2F4E700BFC9
:10268000502800400F4B30B51C6F240407D41C6F3A
:1026900044F400741C671C6F44F400441C670A4C2B
:1026A000236843F4807323600244084BD2B2904203
:1026B00000D130BD441C00B251F8045B43F82050F7
:1026C000E0B2F4E7003802400070004050280040BB
:1026D00007B5012201A90020FFF7C2FF019803B04E
:1026E0005DF804FB13B50446FFF7F2FFA04205D0E6
:1026F000012201A900200194FFF7C4FF02B010BD20
:1027000070470000034B1A681AB9034AD2F87428BC
:102710001A607047F42F00200030024008B5FFF720
:10272000F1FF024B1868C0F3407008BDF42F002081
:10273000704700007047000070470000FEE700008F
:102740000A4B0B480B4A90420BD30B4BDA1C121A64
:10275000C11E22F003028B4238BF00220021FEF787
:10276000CBBA53F8041B40F8041BECE77C3D00088F
:1027700070300020703000207030002070B5D0E93B
:1027800015439E6800224FF0FF3504EB42135101C0
:10279000D3F800090028BEBFD3F8000940F08040FC
:1027A000C3F80009D3F8000B0028BEBFD3F8000B14
:1027B00040F08040C3F8000B013263189642C3F822
:1027C0000859C3F8085BE0D24FF00113C4F81C3875
:1027D00070BD00000E4AF0B5D2E915639F68002372
:1027E0000C321946012552F8040B58B1846924B102
:1027F00001F1100405FA04F42343406910B105FA0D
:1028000001F003430131B942EDD9C6F81C38F0BDDF
:10281000F82F0020890141F02001016103699B0626
:10282000FCD41220FFF7F2BA10B5054C2046FEF793
:10283000C7FF4FF0A0436365024BA36510BD00BF07
:10284000F82F00201C3C000870B50378012B0546CA
:1028500050D12A4B446D98421BD1294B5A6B42F000
:1028600080025A635A6D42F080025A655A6D5A6965
:1028700042F080025A615A6922F080025A610E21A8
:1028800043205B6900F05CFC1E4BE3601E4BC4F808
:1028900000380023C4F8003EC02323606E6D4FF45F
:1028A0000413A3633369002BFCDA012333610C208A
:1028B000FFF7ACFA3369DB07FCD41220FFF7A6FA66
:1028C0003369002BFCDA0026A6602846FFF756FF86
:1028D0006B68C4F81068DB68C4F81468C4F81C6836
:1028E0004BB90A4BA3614FF0FF336361A36843F018
:1028F0000103A36070BD064BF4E700BFF82F002072
:10290000003802404014004003002002003C30C068
:10291000083C30C0F8B5446D054600212046FFF75D
:1029200079FFA96D00234FF001128F68C4F8343885
:102930004FF00066C4F81C284FF0FF3004EB431240
:1029400001339F42C2F80069C2F8006BC2F808095F
:10295000C2F8080BF2D20B686A6DEB656362102354
:102960001361166916F01006FBD11220FFF74EFA1C
:10297000D4F8003823F4FE63C4F80038A36943F4A4
:10298000402343F01003A3610123C4F81038092346
:10299000C4F814380A4BEB604FF0C043C4F8103B46
:1029A000084BC4F8003BC4F81069C4F80039EB6D5B
:1029B00003F1100243F48013EA65A362F8BD00BF7F
:1029C000F83B000840800010426D90F84E10D2F89D
:1029D000003823F4FE6343EA0113C2F8003870475D
:1029E0002DE9F84300EB8103456DDA68166806F0BF
:1029F0000306731E022B05EB41130C4680460FFAAB
:102A000081F94FEA41104FF00001C3F8101B4FF05D
:102A1000010104F1100398BFB60401FA03F39169B0
:102A20008EBF334E06F1805606F5004600293AD097
:102A3000578A04F15801490137436F50D5F81C18E3
:102A40000B43C5F81C382B180021C3F81019536923
:102A50000127611EA7409BB3138A928B9B08012A12
:102A600088BF5343D8F85C20981842EA034301F129
:102A7000400205EB8202C8F85C00214653602846FC
:102A8000FFF7C8FE08EB8900C3681B8A43EA84533A
:102A9000483464011E432E51D5F81C381F43C5F835
:102AA0001C78BDE8F88305EB4917D7F8001B21F423
:102AB0000041C7F8001BD5F81C1821EA0303C0E742
:102AC00004F13F0305EB83030A4A5A602846214676
:102AD000FFF7A0FE05EB4910D0F8003923F40043BE
:102AE000C0F80039D5F81C3823EA0707D7E700BF3C
:102AF0000080001000040002826D1268C265FFF7BA
:102B00003DBE00005831436D49015B5813F400404D
:102B100004D013F4001F0CBF0220012070470000F6
:102B20004831436D49015B5813F4004004D013F45D
:102B3000001F0CBF022001207047000000EB810144
:102B4000CB68196A0B6813604B68536070470000CC
:102B500000EB810330B5DD68AA691368D36019B949
:102B6000402B84BF402313606B8A1468426D1C4461
:102B7000013CB4FBF3F46343033323F0030302EBA0
:102B8000411043EAC44343F0C043C0F8103B2B68F4
:102B900003F00303012B09B20ED1D2F8083802EB7F
:102BA000411013F4807FD0F8003B14BF43F08053F2
:102BB00043F00053C0F8003B02EB4112D2F8003B57
:102BC00043F00443C2F8003B30BD00002DE9F04162
:102BD000244D6E6D06EB40130446D3F8087BC3F812
:102BE000087B38070AD5D6F81438190706D505EB3F
:102BF00084032146DB6828465B689847FA071FD59F
:102C0000D6F81438DB071BD505EB8403D968CCB99B
:102C10008B69488A5A68B2FBF0F600FB16228AB923
:102C20001868DA6890420DD2121AC3E900243023E2
:102C300083F311880B482146FFF78AFF84F311883C
:102C4000BDE8F081012303FA04F26B8923EA020351
:102C50006B81CB68002BF3D021460248BDE8F041E0
:102C6000184700BFF82F002000EB810370B5DD6826
:102C7000436D6C692668E6604A0156BB1A444FF4FE
:102C80000020C2F810092A6802F00302012A0AB2E1
:102C90000ED1D3F8080803EB421410F4807FD4F867
:102CA000000914BF40F0805040F00050C4F8000903
:102CB00003EB4212D2F8000940F00440C2F80009C8
:102CC000D3F83408012202FA01F10143C3F83418A1
:102CD00070BD19B9402E84BF4020206020682E8A24
:102CE0008419013CB4FBF6F440EAC44040F00050C3
:102CF0001A44C6E72DE9F84F4B4D6E6D06EB4013B5
:102D00000446D3F80889C3F8088918F0010F4FEA80
:102D100040171AD0D6F81038DB0716D505EB80031C
:102D2000D9684B691868DA68904233D2121A4FF0AA
:102D300000091A60C3F80490302383F311882146F8
:102D40002846FFF791FF89F3118818F0800F1FD0F4
:102D5000D6F834380126A640334219D005EB840357
:102D60006D6DD3F80CC0DCF814000134E4B2D0F877
:102D700000E005EB04342F446FF00308D0F8049012
:102D8000F14515D3D5F8343823EA0606C5F834687A
:102D9000BDE8F88F012303FA04F22B8923EA02032A
:102DA0002B818B68002BD0D0214628469847CCE752
:102DB000BCF81020AEEB0903934228BF1346D7F8A6
:102DC000182992B2B3EB820FE2D88268194602EB5F
:102DD000030B0329ABEB010A1CD84FEA930A23F03B
:102DE000030B08FB0A31934479B1022918D0032957
:102DF00018D19BF8021009049BF801B041EA0B219D
:102E000012F82AA04AEA010121601A444B44826068
:102E10004360B3E7DAF800A0C4F800A00439D8E7AB
:102E20000021E9E70021EBE7F82F00202DE9F74F1B
:102E3000AD4C656D4FF040084FF001096E69AB690C
:102E40001E4016F480576E6107D0A748FEF720FD9C
:102E500003B0BDE8F04F00F05BBC002E14DAD5F8EB
:102E6000003E98071EBFD5F8003E23F00303C5F8C7
:102E7000003EFFF7AFFCD5F8043823F00103C5F896
:102E800004382046FEF730FD310505D52046FFF712
:102E900075FC2046FEF716FDB2040CD5D5F80838AF
:102EA00013F0060FEB6823F470530CBF43F4105378
:102EB00043F4A053EB60330719D56368DB681BB993
:102EC000AB6923F00803AB612378052B08D1D5F853
:102ED000003E23F00303C5F8003E2046FEF704FD44
:102EE000FFF778FC6368DB680BB120469847F00277
:102EF0004FD4B10209D5D4F854B04FF0000AA36DF5
:102F00009B685FFA8AF18B427AD23203D5F818A80F
:102F100000F19380730317D51AF0010F02D000203F
:102F2000FFF7E8FE1AF0020F02D00120FFF7E2FEE1
:102F30001AF0040F02D00220FFF7DCFE1AF0080F8F
:102F400002D00320FFF7D6FEF00619D5D4F854C0FE
:102F5000DCF82020C2F30A1002F00F0302F4F01292
:102F6000B2F5802F00F09080B2F5402F08D104EB2D
:102F700083030022DB681B6A0CF5805C904276D1EB
:102F80005A4B1E423FF464AFB8F101087FF456AFCC
:102F90005EE7636D01934FF0000BA36D9B685FFAD2
:102FA0008BFA9A45A5D8019B03EB4A13D3F8001975
:102FB00001F44021B1F5802F1FD1D3F80019002969
:102FC0001BDAD3F8001941F09041C3F80019D3F887
:102FD00000190029FBDB5146606DFFF71BFC2189BE
:102FE00009FA0AF321EA0303238104EB8A03DB686D
:102FF0009B6813B15146204698470BF1010BCCE773
:103000000BEB4112D2F8003B03F44023B3F5802FC1
:1030100010D1D2F8003B002B0CDA628909FA01F3D7
:1030200022EA0303638104EB8103DB68DB680BB1F5
:10303000204698470AF1010A61E71AF4803F02D05E
:103040000020FFF7C3FD1AF4003F02D00120FFF774
:10305000BDFD1AF4802F02D00220FFF7B7FD1AF44D
:10306000002F3FF457AF0320FFF7B0FD52E7910761
:1030700008BFDCF80070072A98BF03F8017B02F153
:10308000010298BF3F0A79E703F1020A04EB8A02C2
:103090004FF0000E52689169D1E9003289689A1A9E
:1030A0000CF5805C704511D104EB8A0382425B68A9
:1030B0009B69D3E901178BBF3F18BF1840185218FE
:1030C00087BF9F6058609F605A6059E71EF0030FEA
:1030D00008BFDCF80070724588BF01F8017B0EF173
:1030E000010E88BF3F0ADDE7F82F00203000000402
:1030F000436D03EB4111D1F8003B43F40013C1F8D9
:10310000003B7047436D03EB4111D1F8003943F4A4
:103110000013C1F800397047436D03EB4111D1F83A
:10312000003B23F40013C1F8003B7047436D03EBF1
:103130004111D1F8003923F40013C1F80039704768
:1031400000F1604303F561430901C9B283F800133C
:10315000012200F01F039A4043099B0003F16043E2
:1031600003F56143C3F880211A60704730B5039CB2
:103170000172043303FB0425C0E90653049B036377
:103180000021059BC160C0E90000C0E90422C0E93C
:103190000842C0E90A11436330BD0000416A0022C1
:1031A000C0E90411C0E90A22C2606FF00101FEF714
:1031B0009DBE0000D0E90432934201D1C2680AB931
:1031C000181D70470020704703691960C2680132FA
:1031D000C260C269134482690361934224BF436A97
:1031E00003610021FEF776BE38B504460D46E3685C
:1031F0003BB16269131D1268A3621344E3620020AD
:1032000007E0237A33B929462046FEF753FE00280B
:10321000EDDA38BD6FF00100FBE70000C368C2695A
:10322000013BC3604369134482694361934224BFF5
:10323000436A436100238362036B03B118477047FD
:1032400070B53023044683F31188866A3EB9FFF7D0
:10325000CBFF054618B186F31188284670BDA36AD6
:10326000E26A13F8015BA362934202D32046FFF7A0
:10327000D5FF002383F31188EFE700002DE9F84F15
:1032800004460E46174698464FF0300989F31188D8
:103290000025AA46D4F828B0BBF1000F09D1414659
:1032A0002046FFF7A1FF20B18BF311882846BDE827
:1032B000F88FD4E90A12A7EB050B521A934528BFE1
:1032C0009346BBF1400F1BD9334601F1400251F840
:1032D000040B43F8040B9142F9D1A36A4033403602
:1032E000A3624035D4E90A239A4202D32046FFF76D
:1032F00095FF8AF31188BD42D8D289F31188C9E7B6
:1033000030465A46FDF7D2FCA36A5B445E44A36292
:103310005D44E7E710B5029C0172043303FB04210E
:10332000C0E906130023C0E90A33039B0363049B2F
:10333000C460C0E90000C0E90422C0E90842436358
:1033400010BD0000026AC260426AC0E90422002285
:10335000C0E90A226FF00101FEF7C8BDD0E90423DD
:103360009A4201D1C26822B9184650F8043B0B605A
:10337000704700231846FAE7C368C2690133C36087
:103380004369134482694361934224BF436A4361A2
:103390000021FEF79FBD000038B504460D46E368E6
:1033A0003BB123691A1DA262E2691344E362002063
:1033B00007E0237A33B929462046FEF77BFD002833
:1033C000EDDA38BD6FF00100FBE70000036919601A
:1033D000C268013AC260C2691344826903619342C0
:1033E00024BF436A036100238362036B03B1184760
:1033F0007047000070B530230D460446114683F334
:103400001188866A2EB9FFF7C7FF10B186F31188BD
:1034100070BDA36A1D70A36AE26A01339342A3627E
:1034200004D3E16920460439FFF7D0FF002080F380
:103430001188EDE72DE9F84F04460D469046994670
:103440004FF0300A8AF311880026B346A76A4FB9B5
:1034500049462046FFF7A0FF20B187F31188304688
:10346000BDE8F88FD4E90A073A1AA8EB0607974295
:1034700028BF1746402F1BD905F1400355F8042BF0
:1034800040F8042B9D42F9D1A36A4033A362403631
:10349000D4E90A239A4204D3E16920460439FFF7AC
:1034A00095FF8BF311884645D9D28AF31188CDE771
:1034B00029463A46FDF7FAFBA36A3B443D44A36222
:1034C0003E44E5E7D0E904239A4217D1C3689BB193
:1034D000836A8BB1043B9B1A0ED01360C368013B17
:1034E000C360C3691A44836902619A4224BF436A74
:1034F0000361002383620123184670470023FBE722
:1035000000F030B94FF08043586A70474FF0804365
:10351000002258631A610222DA6070474FF080433C
:103520000022DA60704700004FF080435863704714
:10353000FEE7000070B51B4B01630025044686B012
:10354000586085620E4600F0BFF804F11003C4E92C
:1035500004334FF0FF33C4E90635C4E90044A560E5
:10356000E562FFF7CFFF2B460246C4E9082304F1CA
:1035700034010D4A256580232046FEF751FC0123C6
:10358000E0600A4A0375009272680192B268CDE960
:103590000223074B6846CDE90435FEF769FC06B007
:1035A00070BD00BF90280020283C00082D3C00087A
:1035B00031350008024AD36A1843D062704700BF11
:1035C000282600204B6843608B688360CB68C3600B
:1035D0000B6943614B6903628B6943620B6803604B
:1035E0007047000008B5264B26481A6940F2FF11C3
:1035F0000A431A611A6922F4FF7222F001021A6169
:103600001A691A6B0A431A631A6D0A431A651E4A2D
:103610001B6D1146FFF7D6FF02F11C0100F580601B
:10362000FFF7D0FF02F1380100F58060FFF7CAFF15
:1036300002F1540100F58060FFF7C4FF02F1700150
:1036400000F58060FFF7BEFF02F18C0100F580609D
:10365000FFF7B8FF02F1A80100F58060FFF7B2FFA5
:1036600002F1C40100F58060FFF7ACFF02F1E00158
:1036700000F58060FFF7A6FFBDE8084000F0EEB857
:103680000038024000000240343C000808B500F059
:103690007DF9FEF7A3FBFFF735F8BDE80840FEF71C
:1036A00011BE000070470000EFF3098305494A6B23
:1036B00022F001024A63683383F30988002383F30D
:1036C0001188704700EF00E0302080F3118862B667
:1036D0000C4B0D4AD96821F4E0610904090C0A4336
:1036E000DA60D3F8FC20094942F08072C3F8FC206C
:1036F0000A6842F001020A602022DA7783F8220089
:10370000704700BF00ED00E00003FA05001000E084
:1037100010B5302383F311880E4B5B6813F40063FC
:1037200014D0F1EE103AEFF30984683C4FF0807347
:10373000E361094BDB6B236684F30988FEF728FB02
:1037400010B1064BA36110BD054BFBE783F3118855
:10375000F9E700BF00ED00E000EF00E02F030008F4
:10376000320300080F4B1A6C42F001021A641A6E01
:1037700042F001021A660C4A1B6E936843F0010383
:1037800093604FF0804353229A624FF0FF32DA6227
:1037900000229A615A63DA605A6001225A611A6003
:1037A000704700BF00380240002004E04FF0804224
:1037B00008B51169D3680B40D9B2C9439B071161A1
:1037C00007D5302383F31188FEF71EFB002383F314
:1037D000118808BD1F4B1A696FEAC2526FEAD252B4
:1037E0001A611A69C2F308021A614FF0FF301A69B0
:1037F0005A69586100215A6959615A691A6A62F016
:1038000080521A621A6A02F080521A621A6A5A6A5E
:1038100058625A6A59625A6A1A6C42F080521A64A3
:103820001A6E42F080521A661A6E0B4A106840F403
:1038300080701060186F00F44070B0F5007F1EBFFC
:103840004FF4803018671967536823F4007353608E
:1038500000F090B80038024000700040334B4FF049
:1038600080521A64324A4FF4404111601A6842F0A3
:1038700001021A601A689107FCD59A6822F00302C7
:103880009A602A4B9A6812F00C02FBD1196801F079
:10389000F90119609A601A6842F480321A601A6855
:1038A0009203FCD55A6F42F001025A671F4B5A6FC0
:1038B0009007FCD51F4A5A601A6842F080721A605D
:1038C0001B4A53685904FCD5184B1A689201FCD561
:1038D000194A9A60194B1A68194B9A42194B21D10F
:1038E000194A1168194A91421CD140F205121A6016
:1038F000144A136803F00F03052BFAD10B4B9A6897
:1039000042F002029A609A6802F00C02082AFAD188
:103910005A6C42F480425A645A6E42F480425A66AB
:103920005B6E704740F20572E1E700BF003802406D
:10393000007000400854400700948838002004E0DC
:1039400011640020003C024000ED00E041C20F4144
:1039500008B50348FDF712FBBDE80840FFF7D8BEE5
:10396000BC23002008B5FFF721FFBDE80840FFF7A2
:10397000CFBE000008B507211C20FFF7E1FBBDE822
:1039800008400C212520FFF7DBBB000008B5FFF73E
:1039900021FF00F00DF8FDF703FDFDF70FFFFDF728
:1039A000C5FDFFF77FFEBDE80840FFF7A9BD000099
:1039B00070470000034611F8012B03F8012B002A81
:1039C000F9D170471210000012110000121300000C
:1039D00053544D3332463F3F3F0053544D333246EC
:1039E0003430780053544D333246343278005354D7
:1039F0004D3332463434365858000000012033002D
:103A00000010410001105A00031059000710310046
:103A100000000000D039000813040000DA39000863
:103A200019040000E439000821040000EE39000800
:103A300000960000000000000000000000000000F0
:103A40000000000000000000611300084D13000892
:103A50008913000875130008811300086D1300080E
:103A600059130008451300089513000800000000D2
:103A7000A11400088D140008C9140008B51400082A
:103A8000C1140008AD14000899140008851400083A
:103A900021150008000000000100000000000000E7
:103AA00063300000A03A0008802600209028002003
:103AB0004172647550696C6F740025424F415244E5
:103AC000252D424C002553455249414C250000000C
:103AD0000200000000000000C51600083D170008A5
:103AE00040004000302D0020402D0020020000004A
:103AF000000000000300000000000000851700081F
:103B00000000000010000000502D00200000000008
:103B10000100000000000000F82F00200101020059
:103B200061220008712100080D220008F12100081F
:103B300043000000383B000809024300020100C0B6
:103B400032090400000102020100052400100105F1
:103B50002401000104240202052406000107058255
:103B6000030800FF09040100020A00000007050124
:103B70000240000007058102400000001200000022
:103B8000843B000812011001020000400912415755
:103B900000020102030100000403090425424F4111
:103BA00052442500466C79696E6752434634576922
:103BB0006E674D696E6900303132333435363738CF
:103BC00039414243444546000040000000400000A7
:103BD0000040000000400000000001000000020062
:103BE00000000200000002000000020000000200CD
:103BF000000002000000020000000000011900089F
:103C0000A91B0008411C000840004000583000205B
:103C100058300020010000006830002080000000C3
:103C200040010000030000006D61696E0069646C72
:103C3000650000000000A81600000000AAAAAAAAB9
:103C400000001400FF9F00000000000070A70A00A1
:103C50000000000000000000AAAAAAAA00000000BC
:103C6000FFFF000000000000000000000000001046
:103C700000000000AAAAAAAA00000010FFFF00008E
:103C80000000000000000000000000000000000034
:103C9000AAAAAAAA00000000FFFF0000000000007E
:103CA000000000000000000000000000AAAAAAAA6C
:103CB00000000000FFFF0000000000000000000006
:103CC0000000000000000000AAAAAAAA000000004C
:103CD000FFFF0000000000000000000000000000E6
:103CE00000000000AAAAAAAA00000000FFFF00002E
:103CF00000000000000000000000000000000000C4
:103D00000A000000000000000300000000000000A6
:103D100000000000000000000000000000000000A3
:103D20000000000000000000000000000000000093
:103D3000D90400000000000000000F000000000097
:103D4000FF00000098280020BC23002000960000FF
:103D500000000800960000000008000004000000B9
:103D6000983B000800000000000000000000000078
:0C3D700000000000000000000000000047
:00000001FF
